{
  "_format": "hh-sol-artifact-1",
  "contractName": "Proposal",
  "sourceName": "contracts/Proposal.sol",
  "abi": [
    {
      "inputs": [
        {
          "internalType": "address payable",
          "name": "_proposer",
          "type": "address"
        },
        {
          "internalType": "uint256",
          "name": "_minAmount",
          "type": "uint256"
        },
        {
          "internalType": "string",
          "name": "_title",
          "type": "string"
        },
        {
          "internalType": "string",
          "name": "_desc",
          "type": "string"
        },
        {
          "internalType": "string",
          "name": "_imageUrl",
          "type": "string"
        },
        {
          "internalType": "uint256",
          "name": "_minimunContribution",
          "type": "uint256"
        }
      ],
      "stateMutability": "nonpayable",
      "type": "constructor"
    },
    {
      "inputs": [],
      "name": "ProposalDescription",
      "outputs": [
        {
          "internalType": "string",
          "name": "",
          "type": "string"
        }
      ],
      "stateMutability": "view",
      "type": "function"
    },
    {
      "inputs": [],
      "name": "ProposalTitle",
      "outputs": [
        {
          "internalType": "string",
          "name": "",
          "type": "string"
        }
      ],
      "stateMutability": "view",
      "type": "function"
    },
    {
      "inputs": [
        {
          "internalType": "uint256",
          "name": "index",
          "type": "uint256"
        }
      ],
      "name": "approveRequest",
      "outputs": [],
      "stateMutability": "nonpayable",
      "type": "function"
    },
    {
      "inputs": [
        {
          "internalType": "address",
          "name": "",
          "type": "address"
        }
      ],
      "name": "approvers",
      "outputs": [
        {
          "internalType": "bool",
          "name": "",
          "type": "bool"
        }
      ],
      "stateMutability": "view",
      "type": "function"
    },
    {
      "inputs": [],
      "name": "approversCount",
      "outputs": [
        {
          "internalType": "uint256",
          "name": "",
          "type": "uint256"
        }
      ],
      "stateMutability": "view",
      "type": "function"
    },
    {
      "inputs": [
        {
          "internalType": "string",
          "name": "_description",
          "type": "string"
        },
        {
          "internalType": "uint256",
          "name": "_amount",
          "type": "uint256"
        }
      ],
      "name": "createRequest",
      "outputs": [],
      "stateMutability": "nonpayable",
      "type": "function"
    },
    {
      "inputs": [],
      "name": "donate",
      "outputs": [],
      "stateMutability": "payable",
      "type": "function"
    },
    {
      "inputs": [
        {
          "internalType": "uint256",
          "name": "index",
          "type": "uint256"
        }
      ],
      "name": "finalizeRequest",
      "outputs": [],
      "stateMutability": "payable",
      "type": "function"
    },
    {
      "inputs": [],
      "name": "getProposalSummary",
      "outputs": [
        {
          "internalType": "uint256",
          "name": "",
          "type": "uint256"
        },
        {
          "internalType": "uint256",
          "name": "",
          "type": "uint256"
        },
        {
          "internalType": "uint256",
          "name": "",
          "type": "uint256"
        },
        {
          "internalType": "uint256",
          "name": "",
          "type": "uint256"
        },
        {
          "internalType": "address",
          "name": "",
          "type": "address"
        },
        {
          "internalType": "string",
          "name": "",
          "type": "string"
        },
        {
          "internalType": "string",
          "name": "",
          "type": "string"
        },
        {
          "internalType": "string",
          "name": "",
          "type": "string"
        },
        {
          "internalType": "bool",
          "name": "",
          "type": "bool"
        },
        {
          "internalType": "uint256",
          "name": "",
          "type": "uint256"
        }
      ],
      "stateMutability": "view",
      "type": "function"
    },
    {
      "inputs": [],
      "name": "getRequestsCount",
      "outputs": [
        {
          "internalType": "uint256",
          "name": "",
          "type": "uint256"
        }
      ],
      "stateMutability": "view",
      "type": "function"
    },
    {
      "inputs": [],
      "name": "imageUrl",
      "outputs": [
        {
          "internalType": "string",
          "name": "",
          "type": "string"
        }
      ],
      "stateMutability": "view",
      "type": "function"
    },
    {
      "inputs": [],
      "name": "minimunContribution",
      "outputs": [
        {
          "internalType": "uint256",
          "name": "",
          "type": "uint256"
        }
      ],
      "stateMutability": "view",
      "type": "function"
    },
    {
      "inputs": [],
      "name": "proposer",
      "outputs": [
        {
          "internalType": "address payable",
          "name": "",
          "type": "address"
        }
      ],
      "stateMutability": "view",
      "type": "function"
    },
    {
      "inputs": [
        {
          "internalType": "uint256",
          "name": "",
          "type": "uint256"
        }
      ],
      "name": "requests",
      "outputs": [
        {
          "internalType": "string",
          "name": "description",
          "type": "string"
        },
        {
          "internalType": "uint256",
          "name": "amount",
          "type": "uint256"
        },
        {
          "internalType": "bool",
          "name": "complete",
          "type": "bool"
        },
        {
          "internalType": "uint256",
          "name": "approvalCount",
          "type": "uint256"
        }
      ],
      "stateMutability": "view",
      "type": "function"
    },
    {
      "inputs": [
        {
          "internalType": "uint256",
          "name": "",
          "type": "uint256"
        }
      ],
      "name": "sponsor",
      "outputs": [
        {
          "internalType": "address",
          "name": "",
          "type": "address"
        }
      ],
      "stateMutability": "view",
      "type": "function"
    },
    {
      "inputs": [],
      "name": "targetAmount",
      "outputs": [
        {
          "internalType": "uint256",
          "name": "",
          "type": "uint256"
        }
      ],
      "stateMutability": "view",
      "type": "function"
    },
    {
      "inputs": [],
      "name": "targetToAchieve",
      "outputs": [
        {
          "internalType": "bool",
          "name": "",
          "type": "bool"
        }
      ],
      "stateMutability": "view",
      "type": "function"
    }
  ],
  "bytecode": "0x60806040523480156200001157600080fd5b506040516200117638038062001176833981810160405281019062000037919062000224565b846000806101000a81548173ffffffffffffffffffffffffffffffffffffffff021916908373ffffffffffffffffffffffffffffffffffffffff16021790555083600181905550826002908051906020019062000096929190620000d4565b508160039080519060200190620000af929190620000d4565b508060049080519060200190620000c8929190620000d4565b505050505050620004d3565b828054620000e290620003c4565b90600052602060002090601f01602090048101928262000106576000855562000152565b82601f106200012157805160ff191683800117855562000152565b8280016001018555821562000152579182015b828111156200015157825182559160200191906001019062000134565b5b50905062000161919062000165565b5090565b5b808211156200018057600081600090555060010162000166565b5090565b60006200019b62000195846200031a565b620002f1565b905082815260208101848484011115620001b457600080fd5b620001c18482856200038e565b509392505050565b600081519050620001da816200049f565b92915050565b600082601f830112620001f257600080fd5b81516200020484826020860162000184565b91505092915050565b6000815190506200021e81620004b9565b92915050565b600080600080600060a086880312156200023d57600080fd5b60006200024d88828901620001c9565b955050602062000260888289016200020d565b945050604086015167ffffffffffffffff8111156200027e57600080fd5b6200028c88828901620001e0565b935050606086015167ffffffffffffffff811115620002aa57600080fd5b620002b888828901620001e0565b925050608086015167ffffffffffffffff811115620002d657600080fd5b620002e488828901620001e0565b9150509295509295909350565b6000620002fd62000310565b90506200030b8282620003fa565b919050565b6000604051905090565b600067ffffffffffffffff8211156200033857620003376200045f565b5b62000343826200048e565b9050602081019050919050565b60006200035d8262000364565b9050919050565b600073ffffffffffffffffffffffffffffffffffffffff82169050919050565b6000819050919050565b60005b83811015620003ae57808201518184015260208101905062000391565b83811115620003be576000848401525b50505050565b60006002820490506001821680620003dd57607f821691505b60208210811415620003f457620003f362000430565b5b50919050565b62000405826200048e565b810181811067ffffffffffffffff821117156200042757620004266200045f565b5b80604052505050565b7f4e487b7100000000000000000000000000000000000000000000000000000000600052602260045260246000fd5b7f4e487b7100000000000000000000000000000000000000000000000000000000600052604160045260246000fd5b6000601f19601f8301169050919050565b620004aa8162000350565b8114620004b657600080fd5b50565b620004c48162000384565b8114620004d057600080fd5b50565b610c9380620004e36000396000f3fe6080604052600436106100a75760003560e01c8063953b8fb811610064578063953b8fb8146101dd578063a8e4fb9014610208578063aba8315014610233578063b2a87fc31461025e578063b6cce5e214610289578063ed88c68e146102c6576100a7565b80630a144391146100ac5780631f21eb26146100e95780634e632799146101145780636ce61bff1461014757806381d12c581461017257806382fde093146101b2575b600080fd5b3480156100b857600080fd5b506100d360048036038101906100ce919061089c565b6102d0565b6040516100e0919061096f565b60405180910390f35b3480156100f557600080fd5b506100fe6102f0565b60405161010b919061098a565b60405180910390f35b34801561012057600080fd5b5061012961037e565b60405161013e99989796959493929190610a0c565b60405180910390f35b34801561015357600080fd5b5061015c610592565b604051610169919061098a565b60405180910390f35b34801561017e57600080fd5b50610199600480360381019061019491906108c5565b610620565b6040516101a994939291906109c7565b60405180910390f35b3480156101be57600080fd5b506101c761068d565b6040516101d491906109ac565b60405180910390f35b3480156101e957600080fd5b506101f2610693565b6040516101ff91906109ac565b60405180910390f35b34801561021457600080fd5b5061021d610699565b60405161022a9190610954565b60405180910390f35b34801561023f57600080fd5b506102486106bd565b604051610255919061098a565b60405180910390f35b34801561026a57600080fd5b5061027361074b565b604051610280919061096f565b60405180910390f35b34801561029557600080fd5b506102b060048036038101906102ab91906108c5565b61075e565b6040516102bd9190610954565b60405180910390f35b6102ce61079d565b005b60066020528060005260406000206000915054906101000a900460ff1681565b600280546102fd90610b45565b80601f016020809104026020016040519081016040528092919081815260200182805461032990610b45565b80156103765780601f1061034b57610100808354040283529160200191610376565b820191906000526020600020905b81548152906001019060200180831161035957829003601f168201915b505050505081565b6000806000806000606080606060004760015460098054905060075460008054906101000a900473ffffffffffffffffffffffffffffffffffffffff16600260036004600860009054906101000a900460ff168380546103dd90610b45565b80601f016020809104026020016040519081016040528092919081815260200182805461040990610b45565b80156104565780601f1061042b57610100808354040283529160200191610456565b820191906000526020600020905b81548152906001019060200180831161043957829003601f168201915b5050505050935082805461046990610b45565b80601f016020809104026020016040519081016040528092919081815260200182805461049590610b45565b80156104e25780601f106104b7576101008083540402835291602001916104e2565b820191906000526020600020905b8154815290600101906020018083116104c557829003601f168201915b505050505092508180546104f590610b45565b80601f016020809104026020016040519081016040528092919081815260200182805461052190610b45565b801561056e5780601f106105435761010080835404028352916020019161056e565b820191906000526020600020905b81548152906001019060200180831161055157829003601f168201915b50505050509150985098509850985098509850985098509850909192939495969798565b6003805461059f90610b45565b80601f01602080910402602001604051908101604052809291908181526020018280546105cb90610b45565b80156106185780601f106105ed57610100808354040283529160200191610618565b820191906000526020600020905b8154815290600101906020018083116105fb57829003601f168201915b505050505081565b6009818154811061063057600080fd5b90600052602060002090600502016000915090508060000154908060010160009054906101000a900460ff16908060020154908060040160009054906101000a900473ffffffffffffffffffffffffffffffffffffffff16905084565b60075481565b60015481565b60008054906101000a900473ffffffffffffffffffffffffffffffffffffffff1681565b600480546106ca90610b45565b80601f01602080910402602001604051908101604052809291908181526020018280546106f690610b45565b80156107435780601f1061071857610100808354040283529160200191610743565b820191906000526020600020905b81548152906001019060200180831161072657829003601f168201915b505050505081565b600860009054906101000a900460ff1681565b6005818154811061076e57600080fd5b906000526020600020016000915054906101000a900473ffffffffffffffffffffffffffffffffffffffff1681565b6005339080600181540180825580915050600190039060005260206000200160009091909190916101000a81548173ffffffffffffffffffffffffffffffffffffffff021916908373ffffffffffffffffffffffffffffffffffffffff1602179055506001600660003373ffffffffffffffffffffffffffffffffffffffff1673ffffffffffffffffffffffffffffffffffffffff16815260200190815260200160002060006101000a81548160ff0219169083151502179055506007600081548092919061086b90610b77565b9190505550565b60008135905061088181610c2f565b92915050565b60008135905061089681610c46565b92915050565b6000602082840312156108ae57600080fd5b60006108bc84828501610872565b91505092915050565b6000602082840312156108d757600080fd5b60006108e584828501610887565b91505092915050565b6108f781610aca565b82525050565b61090681610adc565b82525050565b600061091782610aae565b6109218185610ab9565b9350610931818560208601610b12565b61093a81610c1e565b840191505092915050565b61094e81610b08565b82525050565b600060208201905061096960008301846108ee565b92915050565b600060208201905061098460008301846108fd565b92915050565b600060208201905081810360008301526109a4818461090c565b905092915050565b60006020820190506109c16000830184610945565b92915050565b60006080820190506109dc6000830187610945565b6109e960208301866108fd565b6109f66040830185610945565b610a0360608301846108ee565b95945050505050565b600061012082019050610a22600083018c610945565b610a2f602083018b610945565b610a3c604083018a610945565b610a496060830189610945565b610a5660808301886108ee565b81810360a0830152610a68818761090c565b905081810360c0830152610a7c818661090c565b905081810360e0830152610a90818561090c565b9050610aa06101008301846108fd565b9a9950505050505050505050565b600081519050919050565b600082825260208201905092915050565b6000610ad582610ae8565b9050919050565b60008115159050919050565b600073ffffffffffffffffffffffffffffffffffffffff82169050919050565b6000819050919050565b60005b83811015610b30578082015181840152602081019050610b15565b83811115610b3f576000848401525b50505050565b60006002820490506001821680610b5d57607f821691505b60208210811415610b7157610b70610bef565b5b50919050565b6000610b8282610b08565b91507fffffffffffffffffffffffffffffffffffffffffffffffffffffffffffffffff821415610bb557610bb4610bc0565b5b600182019050919050565b7f4e487b7100000000000000000000000000000000000000000000000000000000600052601160045260246000fd5b7f4e487b7100000000000000000000000000000000000000000000000000000000600052602260045260246000fd5b6000601f19601f8301169050919050565b610c3881610aca565b8114610c4357600080fd5b50565b610c4f81610b08565b8114610c5a57600080fd5b5056fea26469706673582212202dc8f2efe14f23bd50a1b6275547268d2f85f618877be467980229f7baddaf1f64736f6c63430008040033",
  "linkReferences": {},
  "deployedLinkReferences": {}
}