{
  "_format": "hh-sol-artifact-1",
  "contractName": "Proposal",
  "sourceName": "contracts/Proposal.sol",
  "abi": [
    {
      "inputs": [
        {
          "internalType": "address",
          "name": "_proposer",
          "type": "address"
        },
        {
          "internalType": "uint256",
          "name": "_targetAmount",
          "type": "uint256"
        },
        {
          "internalType": "string",
          "name": "_title",
          "type": "string"
        },
        {
          "internalType": "string",
          "name": "_desc",
          "type": "string"
        },
        {
          "internalType": "string",
          "name": "_imageUrl",
          "type": "string"
        },
        {
          "internalType": "uint256",
          "name": "_minimunContribution",
          "type": "uint256"
        },
        {
          "internalType": "uint256",
          "name": "_endTime",
          "type": "uint256"
        }
      ],
      "stateMutability": "nonpayable",
      "type": "constructor"
    },
    {
      "inputs": [],
      "name": "ProposalDescription",
      "outputs": [
        {
          "internalType": "string",
          "name": "",
          "type": "string"
        }
      ],
      "stateMutability": "view",
      "type": "function"
    },
    {
      "inputs": [],
      "name": "ProposalTitle",
      "outputs": [
        {
          "internalType": "string",
          "name": "",
          "type": "string"
        }
      ],
      "stateMutability": "view",
      "type": "function"
    },
    {
      "inputs": [
        {
          "internalType": "uint256",
          "name": "index",
          "type": "uint256"
        }
      ],
      "name": "approveRequest",
      "outputs": [],
      "stateMutability": "nonpayable",
      "type": "function"
    },
    {
      "inputs": [],
      "name": "approversCount",
      "outputs": [
        {
          "internalType": "uint256",
          "name": "",
          "type": "uint256"
        }
      ],
      "stateMutability": "view",
      "type": "function"
    },
    {
      "inputs": [
        {
          "internalType": "string",
          "name": "_description",
          "type": "string"
        },
        {
          "internalType": "uint256",
          "name": "_amount",
          "type": "uint256"
        }
      ],
      "name": "createRequest",
      "outputs": [],
      "stateMutability": "nonpayable",
      "type": "function"
    },
    {
      "inputs": [],
      "name": "donate",
      "outputs": [],
      "stateMutability": "payable",
      "type": "function"
    },
    {
      "inputs": [],
      "name": "endTime",
      "outputs": [
        {
          "internalType": "uint256",
          "name": "",
          "type": "uint256"
        }
      ],
      "stateMutability": "view",
      "type": "function"
    },
    {
      "inputs": [
        {
          "internalType": "uint256",
          "name": "index",
          "type": "uint256"
        }
      ],
      "name": "finalizeRequest",
      "outputs": [],
      "stateMutability": "nonpayable",
      "type": "function"
    },
    {
      "inputs": [],
      "name": "getDonateList",
      "outputs": [
        {
          "components": [
            {
              "internalType": "address",
              "name": "sponsor",
              "type": "address"
            },
            {
              "internalType": "uint256",
              "name": "amount",
              "type": "uint256"
            },
            {
              "internalType": "uint256",
              "name": "donateTime",
              "type": "uint256"
            }
          ],
          "internalType": "struct Proposal.DonateInfo[]",
          "name": "",
          "type": "tuple[]"
        }
      ],
      "stateMutability": "view",
      "type": "function"
    },
    {
      "inputs": [],
      "name": "getProposalSummary",
      "outputs": [
        {
          "internalType": "uint256",
          "name": "",
          "type": "uint256"
        },
        {
          "internalType": "uint256",
          "name": "",
          "type": "uint256"
        },
        {
          "internalType": "uint256",
          "name": "",
          "type": "uint256"
        },
        {
          "internalType": "uint256",
          "name": "",
          "type": "uint256"
        },
        {
          "internalType": "address",
          "name": "",
          "type": "address"
        },
        {
          "internalType": "string",
          "name": "",
          "type": "string"
        },
        {
          "internalType": "string",
          "name": "",
          "type": "string"
        },
        {
          "internalType": "string",
          "name": "",
          "type": "string"
        },
        {
          "internalType": "bool",
          "name": "",
          "type": "bool"
        },
        {
          "internalType": "uint256",
          "name": "",
          "type": "uint256"
        },
        {
          "internalType": "uint256",
          "name": "",
          "type": "uint256"
        },
        {
          "internalType": "uint256",
          "name": "",
          "type": "uint256"
        }
      ],
      "stateMutability": "view",
      "type": "function"
    },
    {
      "inputs": [],
      "name": "getRequestsCount",
      "outputs": [
        {
          "internalType": "uint256",
          "name": "",
          "type": "uint256"
        }
      ],
      "stateMutability": "view",
      "type": "function"
    },
    {
      "inputs": [],
      "name": "imageUrl",
      "outputs": [
        {
          "internalType": "string",
          "name": "",
          "type": "string"
        }
      ],
      "stateMutability": "view",
      "type": "function"
    },
    {
      "inputs": [],
      "name": "minimunContribution",
      "outputs": [
        {
          "internalType": "uint256",
          "name": "",
          "type": "uint256"
        }
      ],
      "stateMutability": "view",
      "type": "function"
    },
    {
      "inputs": [],
      "name": "proposer",
      "outputs": [
        {
          "internalType": "address",
          "name": "",
          "type": "address"
        }
      ],
      "stateMutability": "view",
      "type": "function"
    },
    {
      "inputs": [],
      "name": "refund",
      "outputs": [],
      "stateMutability": "nonpayable",
      "type": "function"
    },
    {
      "inputs": [
        {
          "internalType": "uint256",
          "name": "",
          "type": "uint256"
        }
      ],
      "name": "requests",
      "outputs": [
        {
          "internalType": "string",
          "name": "description",
          "type": "string"
        },
        {
          "internalType": "uint256",
          "name": "amount",
          "type": "uint256"
        },
        {
          "internalType": "bool",
          "name": "complete",
          "type": "bool"
        },
        {
          "internalType": "uint256",
          "name": "approvalCount",
          "type": "uint256"
        }
      ],
      "stateMutability": "view",
      "type": "function"
    },
    {
      "inputs": [],
      "name": "sponsorCount",
      "outputs": [
        {
          "internalType": "uint256",
          "name": "",
          "type": "uint256"
        }
      ],
      "stateMutability": "view",
      "type": "function"
    },
    {
      "inputs": [
        {
          "internalType": "address",
          "name": "",
          "type": "address"
        }
      ],
      "name": "sponsorTotalContribution",
      "outputs": [
        {
          "internalType": "uint256",
          "name": "",
          "type": "uint256"
        }
      ],
      "stateMutability": "view",
      "type": "function"
    },
    {
      "inputs": [],
      "name": "targetAmount",
      "outputs": [
        {
          "internalType": "uint256",
          "name": "",
          "type": "uint256"
        }
      ],
      "stateMutability": "view",
      "type": "function"
    },
    {
      "inputs": [],
      "name": "targetToAchieve",
      "outputs": [
        {
          "internalType": "bool",
          "name": "",
          "type": "bool"
        }
      ],
      "stateMutability": "view",
      "type": "function"
    }
  ],
  "bytecode": "0x6080604052600060055560006006556000600760006101000a81548160ff0219169083151502179055503480156200003657600080fd5b5060405162002ced38038062002ced83398181016040528101906200005c919062000370565b60008611620000a2576040517f08c379a0000000000000000000000000000000000000000000000000000000008152600401620000999062000526565b60405180910390fd5b60008211620000e8576040517f08c379a0000000000000000000000000000000000000000000000000000000008152600401620000df906200056a565b60405180910390fd5b818610156200012e576040517f08c379a0000000000000000000000000000000000000000000000000000000008152600401620001259062000504565b60405180910390fd5b42811162000173576040517f08c379a00000000000000000000000000000000000000000000000000000000081526004016200016a9062000548565b60405180910390fd5b866000806101000a81548173ffffffffffffffffffffffffffffffffffffffff021916908373ffffffffffffffffffffffffffffffffffffffff160217905550856001819055508460029080519060200190620001d292919062000220565b508360039080519060200190620001eb92919062000220565b5082600490805190602001906200020492919062000220565b508160098190555080600a819055505050505050505062000849565b8280546200022e9062000670565b90600052602060002090601f0160209004810192826200025257600085556200029e565b82601f106200026d57805160ff19168380011785556200029e565b828001600101855582156200029e579182015b828111156200029d57825182559160200191906001019062000280565b5b509050620002ad9190620002b1565b5090565b5b80821115620002cc576000816000905550600101620002b2565b5090565b6000620002e7620002e184620005b5565b6200058c565b9050828152602081018484840111156200030057600080fd5b6200030d8482856200063a565b509392505050565b600081519050620003268162000815565b92915050565b600082601f8301126200033e57600080fd5b815162000350848260208601620002d0565b91505092915050565b6000815190506200036a816200082f565b92915050565b600080600080600080600060e0888a0312156200038c57600080fd5b60006200039c8a828b0162000315565b9750506020620003af8a828b0162000359565b965050604088015167ffffffffffffffff811115620003cd57600080fd5b620003db8a828b016200032c565b955050606088015167ffffffffffffffff811115620003f957600080fd5b620004078a828b016200032c565b945050608088015167ffffffffffffffff8111156200042557600080fd5b620004338a828b016200032c565b93505060a0620004468a828b0162000359565b92505060c0620004598a828b0162000359565b91505092959891949750929550565b600062000477602a83620005eb565b915062000484826200074b565b604082019050919050565b60006200049e601783620005eb565b9150620004ab826200079a565b602082019050919050565b6000620004c5601483620005eb565b9150620004d282620007c3565b602082019050919050565b6000620004ec601e83620005eb565b9150620004f982620007ec565b602082019050919050565b600060208201905081810360008301526200051f8162000468565b9050919050565b6000602082019050818103600083015262000541816200048f565b9050919050565b600060208201905081810360008301526200056381620004b6565b9050919050565b600060208201905081810360008301526200058581620004dd565b9050919050565b600062000598620005ab565b9050620005a68282620006a6565b919050565b6000604051905090565b600067ffffffffffffffff821115620005d357620005d26200070b565b5b620005de826200073a565b9050602081019050919050565b600082825260208201905092915050565b6000620006098262000610565b9050919050565b600073ffffffffffffffffffffffffffffffffffffffff82169050919050565b6000819050919050565b60005b838110156200065a5780820151818401526020810190506200063d565b838111156200066a576000848401525b50505050565b600060028204905060018216806200068957607f821691505b60208210811415620006a0576200069f620006dc565b5b50919050565b620006b1826200073a565b810181811067ffffffffffffffff82111715620006d357620006d26200070b565b5b80604052505050565b7f4e487b7100000000000000000000000000000000000000000000000000000000600052602260045260246000fd5b7f4e487b7100000000000000000000000000000000000000000000000000000000600052604160045260246000fd5b6000601f19601f8301169050919050565b7f746172676574416d6f756e742073686f756c64203e3d206d696e696d756e436f60008201527f6e747269627574696f6e00000000000000000000000000000000000000000000602082015250565b7f746172676574416d6f756e742073686f756c64203e2030000000000000000000600082015250565b7f656e6454696d652073686f756c64203e206e6f77000000000000000000000000600082015250565b7f6d696e696d756e436f6e747269627574696f6e2073686f756c64203e20300000600082015250565b6200082081620005fc565b81146200082c57600080fd5b50565b6200083a8162000630565b81146200084657600080fd5b50565b61249480620008596000396000f3fe60806040526004361061011f5760003560e01c8063953b8fb8116100a0578063ad4d86ed11610064578063ad4d86ed146103c3578063b2a87fc3146103ee578063d7d1bbdb14610419578063e90abf4114610442578063ed88c68e1461046d5761011f565b8063953b8fb8146102ee578063a7f3371514610319578063a8e4fb9014610344578063aa6e90c01461036f578063aba83150146103985761011f565b80634e632799116100e75780634e6327991461020b578063590e1ae3146102415780636ce61bff1461025857806381d12c581461028357806382fde093146102c35761011f565b806303441006146101245780631f21eb261461014d5780633197cbb6146101785780633410452a146101a35780633a66722d146101ce575b600080fd5b34801561013057600080fd5b5061014b6004803603810190610146919061177e565b610477565b005b34801561015957600080fd5b50610162610590565b60405161016f9190611b25565b60405180910390f35b34801561018457600080fd5b5061018d61061e565b60405161019a9190611d53565b60405180910390f35b3480156101af57600080fd5b506101b8610624565b6040516101c59190611d53565b60405180910390f35b3480156101da57600080fd5b506101f560048036038101906101f09190611701565b610631565b6040516102029190611d53565b60405180910390f35b34801561021757600080fd5b50610220610649565b6040516102389c9b9a99989796959493929190611d6e565b60405180910390f35b34801561024d57600080fd5b50610256610873565b005b34801561026457600080fd5b5061026d6109da565b60405161027a9190611b25565b60405180910390f35b34801561028f57600080fd5b506102aa60048036038101906102a5919061177e565b610a68565b6040516102ba9493929190611b47565b60405180910390f35b3480156102cf57600080fd5b506102d8610b3d565b6040516102e59190611d53565b60405180910390f35b3480156102fa57600080fd5b50610303610b43565b6040516103109190611d53565b60405180910390f35b34801561032557600080fd5b5061032e610b49565b60405161033b9190611d53565b60405180910390f35b34801561035057600080fd5b50610359610b4f565b6040516103669190611acd565b60405180910390f35b34801561037b57600080fd5b506103966004803603810190610391919061172a565b610b73565b005b3480156103a457600080fd5b506103ad610d8b565b6040516103ba9190611b25565b60405180910390f35b3480156103cf57600080fd5b506103d8610e19565b6040516103e59190611ae8565b60405180910390f35b3480156103fa57600080fd5b50610403610ee2565b6040516104109190611b0a565b60405180910390f35b34801561042557600080fd5b50610440600480360381019061043b919061177e565b610ef5565b005b34801561044e57600080fd5b506104576112fb565b6040516104649190611d53565b60405180910390f35b610475611301565b005b60008054906101000a900473ffffffffffffffffffffffffffffffffffffffff1673ffffffffffffffffffffffffffffffffffffffff166108fc600883815481106104eb577f4e487b7100000000000000000000000000000000000000000000000000000000600052603260045260246000fd5b9060005260206000209060050201600101549081150290604051600060405180830381858888f19350505050158015610528573d6000803e3d6000fd5b50600160088281548110610565577f4e487b7100000000000000000000000000000000000000000000000000000000600052603260045260246000fd5b906000526020600020906005020160020160006101000a81548160ff02191690831515021790555050565b6002805461059d90612053565b80601f01602080910402602001604051908101604052809291908181526020018280546105c990612053565b80156106165780601f106105eb57610100808354040283529160200191610616565b820191906000526020600020905b8154815290600101906020018083116105f957829003601f168201915b505050505081565b600a5481565b6000600880549050905090565b600b6020528060005260406000206000915090505481565b600080600080600060608060606000806000804760015460088054905060055460008054906101000a900473ffffffffffffffffffffffffffffffffffffffff16600260036004600760009054906101000a900460ff16600954600a546006548680546106b590612053565b80601f01602080910402602001604051908101604052809291908181526020018280546106e190612053565b801561072e5780601f106107035761010080835404028352916020019161072e565b820191906000526020600020905b81548152906001019060200180831161071157829003601f168201915b5050505050965085805461074190612053565b80601f016020809104026020016040519081016040528092919081815260200182805461076d90612053565b80156107ba5780601f1061078f576101008083540402835291602001916107ba565b820191906000526020600020905b81548152906001019060200180831161079d57829003601f168201915b505050505095508480546107cd90612053565b80601f01602080910402602001604051908101604052809291908181526020018280546107f990612053565b80156108465780601f1061081b57610100808354040283529160200191610846565b820191906000526020600020905b81548152906001019060200180831161082957829003601f168201915b505050505094509b509b509b509b509b509b509b509b509b509b509b509b50909192939495969798999a9b565b6000600b60003373ffffffffffffffffffffffffffffffffffffffff1673ffffffffffffffffffffffffffffffffffffffff16815260200190815260200160002054116108f5576040517f08c379a00000000000000000000000000000000000000000000000000000000081526004016108ec90611c13565b60405180910390fd5b600760009054906101000a900460ff161580156109135750600a5442115b610952576040517f08c379a000000000000000000000000000000000000000000000000000000000815260040161094990611c33565b60405180910390fd5b3373ffffffffffffffffffffffffffffffffffffffff166108fc600b60003373ffffffffffffffffffffffffffffffffffffffff1673ffffffffffffffffffffffffffffffffffffffff168152602001908152602001600020549081150290604051600060405180830381858888f193505050501580156109d7573d6000803e3d6000fd5b50565b600380546109e790612053565b80601f0160208091040260200160405190810160405280929190818152602001828054610a1390612053565b8015610a605780601f10610a3557610100808354040283529160200191610a60565b820191906000526020600020905b815481529060010190602001808311610a4357829003601f168201915b505050505081565b60088181548110610a7857600080fd5b9060005260206000209060050201600091509050806000018054610a9b90612053565b80601f0160208091040260200160405190810160405280929190818152602001828054610ac790612053565b8015610b145780601f10610ae957610100808354040283529160200191610b14565b820191906000526020600020905b815481529060010190602001808311610af757829003601f168201915b5050505050908060010154908060020160009054906101000a900460ff16908060030154905084565b60055481565b60015481565b60095481565b60008054906101000a900473ffffffffffffffffffffffffffffffffffffffff1681565b600760009054906101000a900460ff16610bc2576040517f08c379a0000000000000000000000000000000000000000000000000000000008152600401610bb990611d33565b60405180910390fd5b60008054906101000a900473ffffffffffffffffffffffffffffffffffffffff1673ffffffffffffffffffffffffffffffffffffffff163373ffffffffffffffffffffffffffffffffffffffff1614610c50576040517f08c379a0000000000000000000000000000000000000000000000000000000008152600401610c4790611c73565b60405180910390fd5b60004711610c93576040517f08c379a0000000000000000000000000000000000000000000000000000000008152600401610c8a90611cd3565b60405180910390fd5b60008111610cd6576040517f08c379a0000000000000000000000000000000000000000000000000000000008152600401610ccd90611cb3565b60405180910390fd5b80471015610d19576040517f08c379a0000000000000000000000000000000000000000000000000000000008152600401610d1090611c93565b60405180910390fd5b60006008600181600181540180825580915050039060005260206000209060050201905082816000019080519060200190610d559291906115cc565b5081816001018190555060008160020160006101000a81548160ff02191690831515021790555060008160030181905550505050565b60048054610d9890612053565b80601f0160208091040260200160405190810160405280929190818152602001828054610dc490612053565b8015610e115780601f10610de657610100808354040283529160200191610e11565b820191906000526020600020905b815481529060010190602001808311610df457829003601f168201915b505050505081565b6060600c805480602002602001604051908101604052809291908181526020016000905b82821015610ed957838290600052602060002090600302016040518060600160405290816000820160009054906101000a900473ffffffffffffffffffffffffffffffffffffffff1673ffffffffffffffffffffffffffffffffffffffff1673ffffffffffffffffffffffffffffffffffffffff1681526020016001820154815260200160028201548152505081526020019060010190610e3d565b50505050905090565b600760009054906101000a900460ff1681565b60088181548110610f2f577f4e487b7100000000000000000000000000000000000000000000000000000000600052603260045260246000fd5b906000526020600020906005020160020160009054906101000a900460ff1615610f8e576040517f08c379a0000000000000000000000000000000000000000000000000000000008152600401610f8590611bb3565b60405180910390fd5b60008054906101000a900473ffffffffffffffffffffffffffffffffffffffff1673ffffffffffffffffffffffffffffffffffffffff163373ffffffffffffffffffffffffffffffffffffffff16141561101d576040517f08c379a000000000000000000000000000000000000000000000000000000000815260040161101490611bf3565b60405180910390fd5b6000600b60003373ffffffffffffffffffffffffffffffffffffffff1673ffffffffffffffffffffffffffffffffffffffff168152602001908152602001600020541161109f576040517f08c379a000000000000000000000000000000000000000000000000000000000815260040161109690611bd3565b60405180910390fd5b600881815481106110d9577f4e487b7100000000000000000000000000000000000000000000000000000000600052603260045260246000fd5b906000526020600020906005020160040160003373ffffffffffffffffffffffffffffffffffffffff1673ffffffffffffffffffffffffffffffffffffffff16815260200190815260200160002060009054906101000a900460ff1615611175576040517f08c379a000000000000000000000000000000000000000000000000000000000815260040161116c90611b93565b60405180910390fd5b6001600882815481106111b1577f4e487b7100000000000000000000000000000000000000000000000000000000600052603260045260246000fd5b906000526020600020906005020160040160003373ffffffffffffffffffffffffffffffffffffffff1673ffffffffffffffffffffffffffffffffffffffff16815260200190815260200160002060006101000a81548160ff02191690831515021790555060088181548110611250577f4e487b7100000000000000000000000000000000000000000000000000000000600052603260045260246000fd5b90600052602060002090600502016003016000815480929190611272906120b6565b91905055506002806006546112879190611f6f565b6112919190611f3e565b6002600883815481106112cd577f4e487b7100000000000000000000000000000000000000000000000000000000600052603260045260246000fd5b9060005260206000209060050201600301546112e99190611f6f565b106112f8576112f781610477565b5b50565b60065481565b60008054906101000a900473ffffffffffffffffffffffffffffffffffffffff1673ffffffffffffffffffffffffffffffffffffffff163373ffffffffffffffffffffffffffffffffffffffff161415611390576040517f08c379a000000000000000000000000000000000000000000000000000000000815260040161138790611c53565b60405180910390fd5b6009543410156113d5576040517f08c379a00000000000000000000000000000000000000000000000000000000081526004016113cc90611d13565b60405180910390fd5b60003411611418576040517f08c379a000000000000000000000000000000000000000000000000000000000815260040161140f90611cb3565b60405180910390fd5b42600a541161145c576040517f08c379a000000000000000000000000000000000000000000000000000000000815260040161145390611cf3565b60405180910390fd5b6000600b60003373ffffffffffffffffffffffffffffffffffffffff1673ffffffffffffffffffffffffffffffffffffffff1681526020019081526020016000205414156114bd57600660008154809291906114b7906120b6565b91905055505b600560008154809291906114d0906120b6565b919050555034600b60003373ffffffffffffffffffffffffffffffffffffffff1673ffffffffffffffffffffffffffffffffffffffff16815260200190815260200160002060008282546115249190611ee8565b925050819055506000600c6001816001815401808255809150500390600052602060002090600302019050338160000160006101000a81548173ffffffffffffffffffffffffffffffffffffffff021916908373ffffffffffffffffffffffffffffffffffffffff16021790555034816001018190555042816002018190555060015447106115c9576001600760006101000a81548160ff0219169083151502179055505b50565b8280546115d890612053565b90600052602060002090601f0160209004810192826115fa5760008555611641565b82601f1061161357805160ff1916838001178555611641565b82800160010185558215611641579182015b82811115611640578251825591602001919060010190611625565b5b50905061164e9190611652565b5090565b5b8082111561166b576000816000905550600101611653565b5090565b600061168261167d84611e62565b611e3d565b90508281526020810184848401111561169a57600080fd5b6116a5848285612011565b509392505050565b6000813590506116bc81612430565b92915050565b600082601f8301126116d357600080fd5b81356116e384826020860161166f565b91505092915050565b6000813590506116fb81612447565b92915050565b60006020828403121561171357600080fd5b6000611721848285016116ad565b91505092915050565b6000806040838503121561173d57600080fd5b600083013567ffffffffffffffff81111561175757600080fd5b611763858286016116c2565b9250506020611774858286016116ec565b9150509250929050565b60006020828403121561179057600080fd5b600061179e848285016116ec565b91505092915050565b60006117b38383611a6d565b60608301905092915050565b6117c881611fc9565b82525050565b6117d781611fc9565b82525050565b60006117e882611ea3565b6117f28185611ec6565b93506117fd83611e93565b8060005b8381101561182e57815161181588826117a7565b975061182083611eb9565b925050600181019050611801565b5085935050505092915050565b61184481611fdb565b82525050565b600061185582611eae565b61185f8185611ed7565b935061186f818560208601612020565b611878816121bb565b840191505092915050565b6000611890600e83611ed7565b915061189b826121cc565b602082019050919050565b60006118b3601483611ed7565b91506118be826121f5565b602082019050919050565b60006118d6601a83611ed7565b91506118e18261221e565b602082019050919050565b60006118f9601683611ed7565b915061190482612247565b602082019050919050565b600061191c601983611ed7565b915061192782612270565b602082019050919050565b600061193f601e83611ed7565b915061194a82612299565b602082019050919050565b6000611962601583611ed7565b915061196d826122c2565b602082019050919050565b6000611985602183611ed7565b9150611990826122eb565b604082019050919050565b60006119a8601483611ed7565b91506119b38261233a565b602082019050919050565b60006119cb600e83611ed7565b91506119d682612363565b602082019050919050565b60006119ee601983611ed7565b91506119f98261238c565b602082019050919050565b6000611a11601d83611ed7565b9150611a1c826123b5565b602082019050919050565b6000611a34601c83611ed7565b9150611a3f826123de565b602082019050919050565b6000611a57601283611ed7565b9150611a6282612407565b602082019050919050565b606082016000820151611a8360008501826117bf565b506020820151611a966020850182611aaf565b506040820151611aa96040850182611aaf565b50505050565b611ab881612007565b82525050565b611ac781612007565b82525050565b6000602082019050611ae260008301846117ce565b92915050565b60006020820190508181036000830152611b0281846117dd565b905092915050565b6000602082019050611b1f600083018461183b565b92915050565b60006020820190508181036000830152611b3f818461184a565b905092915050565b60006080820190508181036000830152611b61818761184a565b9050611b706020830186611abe565b611b7d604083018561183b565b611b8a6060830184611abe565b95945050505050565b60006020820190508181036000830152611bac81611883565b9050919050565b60006020820190508181036000830152611bcc816118a6565b9050919050565b60006020820190508181036000830152611bec816118c9565b9050919050565b60006020820190508181036000830152611c0c816118ec565b9050919050565b60006020820190508181036000830152611c2c8161190f565b9050919050565b60006020820190508181036000830152611c4c81611932565b9050919050565b60006020820190508181036000830152611c6c81611955565b9050919050565b60006020820190508181036000830152611c8c81611978565b9050919050565b60006020820190508181036000830152611cac8161199b565b9050919050565b60006020820190508181036000830152611ccc816119be565b9050919050565b60006020820190508181036000830152611cec816119e1565b9050919050565b60006020820190508181036000830152611d0c81611a04565b9050919050565b60006020820190508181036000830152611d2c81611a27565b9050919050565b60006020820190508181036000830152611d4c81611a4a565b9050919050565b6000602082019050611d686000830184611abe565b92915050565b600061018082019050611d84600083018f611abe565b611d91602083018e611abe565b611d9e604083018d611abe565b611dab606083018c611abe565b611db8608083018b6117ce565b81810360a0830152611dca818a61184a565b905081810360c0830152611dde818961184a565b905081810360e0830152611df2818861184a565b9050611e0261010083018761183b565b611e10610120830186611abe565b611e1e610140830185611abe565b611e2c610160830184611abe565b9d9c50505050505050505050505050565b6000611e47611e58565b9050611e538282612085565b919050565b6000604051905090565b600067ffffffffffffffff821115611e7d57611e7c61218c565b5b611e86826121bb565b9050602081019050919050565b6000819050602082019050919050565b600081519050919050565b600081519050919050565b6000602082019050919050565b600082825260208201905092915050565b600082825260208201905092915050565b6000611ef382612007565b9150611efe83612007565b9250827fffffffffffffffffffffffffffffffffffffffffffffffffffffffffffffffff03821115611f3357611f326120ff565b5b828201905092915050565b6000611f4982612007565b9150611f5483612007565b925082611f6457611f6361212e565b5b828204905092915050565b6000611f7a82612007565b9150611f8583612007565b9250817fffffffffffffffffffffffffffffffffffffffffffffffffffffffffffffffff0483118215151615611fbe57611fbd6120ff565b5b828202905092915050565b6000611fd482611fe7565b9050919050565b60008115159050919050565b600073ffffffffffffffffffffffffffffffffffffffff82169050919050565b6000819050919050565b82818337600083830152505050565b60005b8381101561203e578082015181840152602081019050612023565b8381111561204d576000848401525b50505050565b6000600282049050600182168061206b57607f821691505b6020821081141561207f5761207e61215d565b5b50919050565b61208e826121bb565b810181811067ffffffffffffffff821117156120ad576120ac61218c565b5b80604052505050565b60006120c182612007565b91507fffffffffffffffffffffffffffffffffffffffffffffffffffffffffffffffff8214156120f4576120f36120ff565b5b600182019050919050565b7f4e487b7100000000000000000000000000000000000000000000000000000000600052601160045260246000fd5b7f4e487b7100000000000000000000000000000000000000000000000000000000600052601260045260246000fd5b7f4e487b7100000000000000000000000000000000000000000000000000000000600052602260045260246000fd5b7f4e487b7100000000000000000000000000000000000000000000000000000000600052604160045260246000fd5b6000601f19601f8301169050919050565b7f4f6e6c79207369676e206f6e6365000000000000000000000000000000000000600082015250565b7f70726f706f73616c20697320636f6d706c657465000000000000000000000000600082015250565b7f4f6e6c7920617070726f766572732063616e20617070726f7665000000000000600082015250565b7f70726f706f73616c2063616e277420617070726f766500000000000000000000600082015250565b7f6f6e6c792073706f6e736f7220616c6c6f7720726566756e6400000000000000600082015250565b7f74617267657420746f20416368696576652063616e277420726566756e640000600082015250565b7f70726f706f7365722063616e277420646f6e6174650000000000000000000000600082015250565b7f4f6e6c792050726f706f7365722063616e20637265617465207265717565737460008201527f2e00000000000000000000000000000000000000000000000000000000000000602082015250565b7f696e73756666696369656e742062616c616e6365000000000000000000000000600082015250565b7f756e656e6f7567682076616c7565000000000000000000000000000000000000600082015250565b7f54686520636f6e747261637420686173206e6f206d6f6e657900000000000000600082015250565b7f697420616c7265616479206f7665722c2063616e277420646f6e617465000000600082015250565b7f646f6e617465203c206d696e696d756e436f6e747269627574696f6e00000000600082015250565b7f746172676574206e6f7420416368696576650000000000000000000000000000600082015250565b61243981611fc9565b811461244457600080fd5b50565b61245081612007565b811461245b57600080fd5b5056fea2646970667358221220cc725a4023e7f928ec3fba369a836e6ce6ad14a4a57bb2a00670be6271bbd38d64736f6c63430008040033",
  "linkReferences": {},
  "deployedLinkReferences": {}
}